:100000000C942A000C94A3050C94CC050C94F505D3
:100010000C9447000C9447000C9447000C94470044
:100020000C9447000C9447000C9447000C94470034
:100030000C9447000C9447000C9447000C94470024
:100040000C9447000C9447000C9447000C94470014
:100050000C94470011241FBECFE5D4E0DEBFCDBF16
:1000600010E0A0E6B0E0EEEBFCE002C005900D92DF
:10007000AE36B107D9F710E0AEE6B0E001C01D9290
:10008000A437B107E1F70E943E060C945D060C947C
:1000900000004423D1F58130A1F0813030F082306E
:1000A000E1F0833009F067C024C02AB381E090E01A
:1000B00002C0880F991F6A95E2F7809582238ABB58
:1000C000089527B381E090E002C0880F991F6A95D8
:1000D000E2F78095822387BB089524B381E090E006
:1000E00002C0880F991F6A95E2F78095822384BB2E
:1000F000089521B381E090E002C0880F991F6A95AE
:10010000E2F78095822381BB08954130A1F58130CB
:1001100091F0813028F08230C9F0833061F521C040
:100120002AB381E090E002C0880F991F6A95E2F738
:10013000282B2ABB089527B381E090E002C0880FE6
:10014000991F6A95E2F7282B27BB089524B381E015
:1001500090E002C0880F991F6A95E2F7282B24BB14
:10016000089521B381E090E002C0880F991F6A953D
:10017000E2F7282B21BB08954130B1F5813099F089
:10018000813030F08230D1F0833009F067C021C077
:100190002BB381E090E002C0880F991F6A95E2F7C7
:1001A000282B2BBB089528B381E090E002C0880F74
:1001B000991F6A95E2F7282B28BB089525B381E0A3
:1001C00090E002C0880F991F6A95E2F7282B25BBA3
:1001D000089522B381E090E002C0880F991F6A95CC
:1001E000E2F7282B22BB08954423C1F5813099F012
:1001F000813028F08230D9F0833081F524C02BB3D0
:1002000081E090E002C0880F991F6A95E2F780951F
:1002100082238BBB089528B381E090E002C0880F51
:10022000991F6A95E2F78095822388BB089525B3CC
:1002300081E090E002C0880F991F6A95E2F78095EF
:10024000822385BB089522B381E090E002C0880F2D
:10025000991F6A95E2F78095822382BB0895FA017F
:10026000813049F0813028F0823039F0833051F507
:1002700017C029B303C026B301C023B381E090E0C7
:10028000062E02C0880F991F0A94E2F730E08223FD
:10029000932302C0959587956A95E2F78083089528
:1002A00020B381E090E0062E02C0880F991F0A94C7
:1002B000E2F730E08223932302C0959587956A95F3
:1002C000E2F780830895662389F4813049F0813014
:1002D00028F0823039F08330F9F406C01ABA089554
:1002E00017BA089514BA089511BA08956130A1F4A7
:1002F000813051F0813028F0823049F0833061F450
:1003000009C08FEF8ABB08958FEF87BB08958FEFE9
:1003100084BB08958FEF81BB0895813049F081300F
:1003200028F0823039F0833041F406C06BBB089569
:1003300068BB089565BB089562BB0895FB018130D9
:1003400049F0813028F0823039F0833051F407C011
:1003500089B303C086B301C083B38083089580B39B
:1003600080830895DF92EF92FF920F931F93D82E10
:1003700080E061E040E00E94BC00EAEFEE2EF12C4C
:10038000C7010197F1F780E062E041E00E94BC0004
:10039000C7010197F1F70D2D10E0A80140715070D1
:1003A00074E0559547957A95E1F780E063E00E9407
:1003B000BC00A8014072507065E0559547956A955C
:1003C000E1F780E064E00E94BC00A8014074507036
:1003D00036E0559547953A95E1F780E065E00E9453
:1003E000BC004D2D441F4427441F80E066E00E945E
:1003F000BC00C7010197F1F780E062E040E00E9495
:10040000BC00C7010197F1F780E062E041E00E9483
:10041000BC00C7010197F1F781E0D82280E063E0DA
:100420004D2D0E94BC00A801427050705595479513
:1004300080E064E00E94BC00A801447050705595B3
:1004400047955595479580E065E00E94BC0008708F
:10045000107083E0159507958A95E1F780E066E0D6
:10046000402F0E94BC00C7010197F1F780E062E0D5
:1004700040E00E94BC00C7010197F1F71F910F9166
:10048000FF90EF90DF90089581E00E94B2018AEF23
:1004900090E00197F1F708951F93162F882319F024
:1004A000813089F407C0603170F4862F80580E9433
:1004B000B20107C0603138F4862F80540E94B20127
:1004C0001F5E109360001F910895DF92EF92FF92DC
:1004D0000F931F93D82E3AEFE32EF12CC70101970B
:1004E000F1F780E062E041E00E94BC00C7010197A3
:1004F000F1F70D2D10E0A8014071507024E05595E2
:1005000047952A95E1F780E063E00E94BC00A801CE
:100510004072507095E0559547959A95E1F780E0C7
:1005200064E00E94BC00A8014074507086E05595BC
:1005300047958A95E1F780E065E00E94BC004D2D6B
:10054000441F4427441F80E066E00E94BC0080E016
:1005500061E041E00E94BC00C7010197F1F780E033
:1005600062E040E00E94BC00C7010197F1F780E023
:1005700062E041E00E94BC00C7010197F1F781E011
:10058000D82280E063E04D2D0E94BC00A80142709B
:1005900050705595479580E064E00E94BC00A8012A
:1005A00044705070559547955595479580E065E0A6
:1005B0000E94BC0008701070F3E015950795FA953D
:1005C000E1F780E066E0402F0E94BC0080E061E03F
:1005D00041E00E94BC00C7010197F1F780E062E0B2
:1005E00040E00E94BC00C7010197F1F71F910F91F5
:1005F000FF90EF90DF9008951F93CF93DF93EC016E
:1006000010E003C00E9465021F5FFE01E10FF11DB3
:1006100080818823B9F7DF91CF911F91089580E001
:1006200061E041E00E94490080E062E041E00E9418
:10063000490088E893E10197F1F780E063E041E049
:100640000E94490080E064E041E00E94490080E0AF
:1006500065E041E00E94490080E066E041E00E94E0
:10066000490080E061E040E00E94BC0080E062E080
:1006700040E00E94BC0082E00E94B20188E20E9439
:10068000B2018AEF90E00197F1F78CE00E94B2018D
:1006900086E00E94B20180E80E94B20181E00E94DF
:1006A000B20108954423D1F58130A1F0813030F0BA
:1006B0008230E1F0833009F067C024C02AB381E0C2
:1006C00090E002C0880F991F6A95E2F78095822317
:1006D0008ABB089527B381E090E002C0880F991F7C
:1006E0006A95E2F78095822387BB089524B381E061
:1006F00090E002C0880F991F6A95E2F780958223E7
:1007000084BB089521B381E090E002C0880F991F57
:100710006A95E2F78095822381BB08954130A1F567
:10072000813091F0813028F08230C9F0833061F55A
:1007300021C02AB381E090E002C0880F991F6A951A
:10074000E2F7282B2ABB089527B381E090E002C08E
:10075000880F991F6A95E2F7282B27BB089524B3C9
:1007600081E090E002C0880F991F6A95E2F7282B7C
:1007700024BB089521B381E090E002C0880F991F47
:100780006A95E2F7282B21BB08954423D1F58130E7
:10079000A1F0813030F08230E1F0833009F067C0A1
:1007A00024C02BB381E090E002C0880F991F6A95A6
:1007B000E2F7809582238BBB089528B381E090E017
:1007C00002C0880F991F6A95E2F78095822388BB43
:1007D000089525B381E090E002C0880F991F6A95C3
:1007E000E2F78095822385BB089522B381E090E0F3
:1007F00002C0880F991F6A95E2F78095822382BB19
:1008000008954130A1F5813091F0813028F0823097
:10081000C9F0833061F521C02BB381E090E002C0C4
:10082000880F991F6A95E2F7282B2BBB089528B3F0
:1008300081E090E002C0880F991F6A95E2F7282BAB
:1008400028BB089525B381E090E002C0880F991F6E
:100850006A95E2F7282B25BB089522B381E090E04A
:1008600002C0880F991F6A95E2F7282B22BB0895D2
:10087000FA01813049F0813028F0823039F083303C
:10088000C1F40EC08BB303C088B301C085B390E040
:1008900002C0959587956A95E2F7817080830895E7
:1008A00082B390E002C0959587956A95E2F78170D2
:1008B00080830895662389F4813049F0813028F0DF
:1008C000823039F08330F9F406C01ABA089517BAA5
:1008D000089514BA089511BA08956130A1F48130D1
:1008E00051F0813028F0823049F0833061F409C042
:1008F0008FEF8ABB08958FEF87BB08958FEF84BB7E
:1009000008958FEF81BB0895813049F0813028F040
:10091000823039F0833041F406C06BBB089568BB68
:10092000089565BB089562BB0895FB01813049F0CD
:10093000813028F0823039F0833051F407C089B318
:1009400003C086B301C083B38083089580B38083DE
:1009500008951F93182F6FE30E948404113049F00B
:10096000113028F0123039F0133051F406C081E410
:1009700005C082E403C083E401C084E48093610085
:100980001F910895DF93CF93CDB7DEB72A970FB6A7
:10099000F894DEBF0FBECDBFDE011196E3E6F0E0B6
:1009A0009AE001900D929150E1F79091610092349C
:1009B00079F0933418F49134E1F405C0933469F07C
:1009C0009434B9F40FC0FE01E80FF11D80E00EC0B1
:1009D000FE01E80FF11D81E009C0FE01E80FF11DE5
:1009E00082E004C0FE01E80FF11D83E061810E94F6
:1009F00084042A960FB6F894DEBF0FBECDBFCF9108
:100A0000DF910895682F80916100823461F0833412
:100A100018F4813489F405C0833439F0843461F4E6
:100A200008C080E003C081E001C082E00E9484042D
:100A3000089583E00E9484040895823481F0833411
:100A400018F4813441F405C0813639F0823619F446
:100A500008C087E707C080E005C087E603C08FEFC6
:100A600001C08CEF0E9402050895982F8BB7806417
:100A70008BBF913051F0913028F0923061F093307B
:100A8000B9F410C085B78E7F02C085B7816085BF7D
:100A900085B78D7F05C085B78E7F85BF85B782609E
:100AA00085BF089585B7816085BF85B7826085BFA2
:100AB0000895982F8BB780688BBF913051F091309B
:100AC00028F0923061F09330B9F410C085B78B7F75
:100AD00002C085B7846085BF85B7877F05C085B7AD
:100AE0008B7F85BF85B7886085BF089585B7846093
:100AF00085BF85B7886085BF0895982F8BB78062C2
:100B00008BBF992319F0913041F404C084B78B7FD7
:100B100084BF089584B7846084BF0895009721F04E
:100B200090936F0080936E000895009721F090934A
:100B30007100809370000895009721F090937300E6
:100B40008093720008951F920F920FB60F92112496
:100B50002F933F934F935F936F937F938F939F93C5
:100B6000AF93BF93EF93FF93E0916E00F0916F000E
:100B7000309709F00995FF91EF91BF91AF919F9147
:100B80008F917F916F915F914F913F912F910F9036
:100B90000FBE0F901F9018951F920F920FB60F92D5
:100BA00011242F933F934F935F936F937F938F9372
:100BB0009F93AF93BF93EF93FF93E0917000F091F9
:100BC0007100309709F00995FF91EF91BF91AF91B6
:100BD0009F918F917F916F915F914F913F912F9155
:100BE0000F900FBE0F901F9018951F920F920FB687
:100BF0000F9211242F933F934F935F936F937F93A3
:100C00008F939F93AF93BF93EF93FF93E091720005
:100C1000F0917300309709F00995FF91EF91BF9122
:100C2000AF919F918F917F916F915F914F913F9184
:100C30002F910F900FBE0F901F9018958FB780685F
:100C40008FBF08958FB78F778FBF089587B3806B5D
:100C500087BB8DB181658DB90895809162008A3717
:100C600011F481E401C08F5F809362008091620083
:100C70008FB985B391E0892785BB089583E062E051
:100C800040E00E94520382E060E041E00E94520393
:100C90000E941E0683E00E9435058DE296E00E94C8
:100CA0008E0587B3806B87BB8DB181658DB928EACE
:0E0CB00031E6C9010197F1F7FCCFF894FFCFB0
:0E0CBE000141403F065B4F666D7D077F6F0072
:00000001FF
