S00C00006C6162312E73726563B8
S11300000C942A000C943F000C943F000C943F0085
S11300100C943F000C943F000C943F000C943F0060
S11300200C943F000C943F000C943F000C943F0050
S11300300C943F000C943F000C943F000C943F0040
S11300400C943F000C943F000C943F000C943F0030
S11300500C943F0011241FBECFE5D8E0DEBFCDBF16
S113006010E0A0E6B0E0E2E3F4E002C005900D92F7
S1130070AA36B107D9F70E9459010C9417020C94BF
S11300800000411138C0813091F028F08230D9F05D
S1130090833029F108952AB381E090E002C0880FEB
S11300A0991F6A95E2F7809582238ABB089527B346
S11300B081E090E002C0880F991F6A95E2F780956D
S11300C0822387BB089524B381E090E002C0880FA7
S11300D0991F6A95E2F78095822384BB089521B322
S11300E081E090E002C0880F991F6A95E2F780953D
S11300F0822381BB0895413099F5813089F028F03D
S11301008230C9F0833011F108952AB381E090E080
S113011002C0880F991F6A95E2F7822B8ABB089563
S113012027B381E090E002C0880F991F6A95E2F737
S1130130822B87BB089524B381E090E002C0880F2E
S1130140991F6A95E2F7822B84BB089521B381E05D
S113015090E002C0880F991F6A95E2F7822B81BB59
S113016008954130A1F5813089F028F08230C9F03A
S1130170833011F108952BB381E090E002C0880F21
S1130180991F6A95E2F7822B8BBB089528B381E00F
S113019090E002C0880F991F6A95E2F7822B88BB12
S11301A0089525B381E090E002C0880F991F6A95F5
S11301B0E2F7822B85BB089522B381E090E002C070
S11301C0880F991F6A95E2F7822B82BB089541112B
S11301D037C0813091F028F08230D9F0833029F192
S11301E008952BB381E090E002C0880F991F6A95AF
S11301F0E2F7809582238BBB089528B381E090E0D9
S113020002C0880F991F6A95E2F78095822388BB04
S1130210089525B381E090E002C0880F991F6A9584
S1130220E2F78095822385BB089522B381E090E0B4
S113023002C0880F991F6A95E2F78095822382BBDA
S11302400895611110C0813041F028F0823039F0F6
S1130250833039F008951ABA089517BA089514BA74
S1130260089511BA0895613099F4813049F028F065
S1130270823049F0833051F008958FEF8ABB08959E
S11302808FEF87BB08958FEF84BB08958FEF81BBF9
S11302900895813041F028F0823039F0833039F00C
S11302A008956BBB089568BB089565BB089562BB50
S11302B0089561E080E00E94210141E067E082E06E
S11302C00E94410041E066E082E00E94410040E07B
S11302D062E083E00E94410040E063E083E00E942A
S11302E0410040E064E083E00E94410041E064E0BA
S11302F081E00E94410040E064E081E00E94B1009E
S113030000E010E0C12CD12CE12CF12C10C000E055
S113031010E0EE24E394F12C0AC003E610E0CC24B0
S1130320C394D12C04C0C12CD12CE12CF12CC801D4
S11303306AE070E00E94EF01EB015C0141E066E0DD
S113034082E00E94B10040E067E082E00E94B100D8
S1130350F501E05AFF4F608180E00E94490187EE79
S113036093E00197F1F700C0000041E067E082E00C
S11303700E94B10040E066E082E00E94B100C05AF1
S1130380DF4F688180E00E9449018DEE92E0019781
S1130390F1F700C0000082990DC0E114F10439F6B0
S11303A00336110509F4B3CF0F5F1F4FEE24E39416
S11303B0F12CBDCF83990EC0C114D10409F0B7CF7D
S11303C00115110509F4A9CF01501109CC24C394D6
S11303D0D12CADCF8499A7CF00E010E0A8CF97FB34
S11303E0072E16F4009407D077FD09D00E9403026B
S11303F007FC05D03EF4909581959F4F0895709524
S113040061957F4F0895AA1BBB1B51E107C0AA1F2A
S1130410BB1FA617B70710F0A61BB70B881F991FA1
S11304205A95A9F780959095BC01CD010895F8944B
S1050430FFCFF8
S10D04327F0DB79FCDDBF90FFFDF4C
S9030000FC
