S00B00004C43442E7372656346
S11300000C942A000C943F000C943F000C943F0085
S11300100C943F000C943F000C943F000C943F0060
S11300200C943F000C943F000C943F000C943F0050
S11300300C943F000C943F000C943F000C943F0040
S11300400C943F000C943F000C943F000C943F0030
S11300500C943F0011241FBECFE5D8E0DEBFCDBF16
S113006010E0A0E6B0E0EAE7F6E002C005900D92E9
S1130070A636B107D9F70E94E7020C943B030C940F
S11300800000411138C0813091F028F08230D9F05D
S1130090833029F108952AB381E090E002C0880FEB
S11300A0991F6A95E2F7809582238ABB089527B346
S11300B081E090E002C0880F991F6A95E2F780956D
S11300C0822387BB089524B381E090E002C0880FA7
S11300D0991F6A95E2F78095822384BB089521B322
S11300E081E090E002C0880F991F6A95E2F780953D
S11300F0822381BB0895413099F5813089F028F03D
S11301008230C9F0833011F108952AB381E090E080
S113011002C0880F991F6A95E2F7822B8ABB089563
S113012027B381E090E002C0880F991F6A95E2F737
S1130130822B87BB089524B381E090E002C0880F2E
S1130140991F6A95E2F7822B84BB089521B381E05D
S113015090E002C0880F991F6A95E2F7822B81BB59
S113016008954130A1F5813089F028F08230C9F03A
S1130170833011F108952BB381E090E002C0880F21
S1130180991F6A95E2F7822B8BBB089528B381E00F
S113019090E002C0880F991F6A95E2F7822B88BB12
S11301A0089525B381E090E002C0880F991F6A95F5
S11301B0E2F7822B85BB089522B381E090E002C070
S11301C0880F991F6A95E2F7822B82BB089541112B
S11301D037C0813091F028F08230D9F0833029F192
S11301E008952BB381E090E002C0880F991F6A95AF
S11301F0E2F7809582238BBB089528B381E090E0D9
S113020002C0880F991F6A95E2F78095822388BB04
S1130210089525B381E090E002C0880F991F6A9584
S1130220E2F78095822385BB089522B381E090E0B4
S113023002C0880F991F6A95E2F78095822382BBDA
S11302400895CF93C82F89EF90E00197F1F700C08C
S1130250000041E062E080E00E94B10089EF90E09C
S11302600197F1F700C000004C2F407150E0559504
S1130270479555954795559547955595479563E009
S113028080E00E94B1004C2F407250E05595479594
S11302905595479555954795559547955595479542
S11302A064E080E00E94B1004C2F407450E0042EC2
S11302B0452F000C441F550B000C441F551F65E0CF
S11302C080E00E94B1004C2F441F4427441F66E085
S11302D080E00E94B10041E061E080E00E94B10052
S11302E089EF90E00197F1F700C0000040E062E080
S11302F080E00E94B10089EF90E00197F1F700C01F
S1130300000041E062E080E00E94B10089EF90E0EB
S11303100197F1F700C000004C2F417063E080E0CA
S11303200E94B1004C2F427050E05595479564E00F
S113033080E00E94B1004C2F447050E055954795E1
S11303405595479565E080E00E94B100C8704C2F38
S113035050E055954795559547955595479566E0D1
S113036080E00E94B10041E061E080E00E94B100C1
S113037089EF90E00197F1F700C0000040E062E0EF
S113038080E00E94B10089EF90E00197F1F700C08E
S11303900000CF910895CF93C82F40E061E080E042
S11303A00E94B10089EF90E00197F1F700C00000CE
S11303B041E062E080E00E94B10089EF90E00197A3
S11303C0F1F700C000004C2F407150E0559547955F
S11303D055954795559547955595479563E080E024
S11303E00E94B1004C2F407250E0559547955595A9
S11303F0479555954795559547955595479564E087
S113040080E00E94B1004C2F407450E0042E452F30
S1130410000C441F550B000C441F551F65E080E081
S11304200E94B1004C2F441F4427441F66E080E023
S11304300E94B10089EF90E00197F1F700C000003D
S113044040E062E080E00E94B10089EF90E0019713
S1130450F1F700C0000041E062E080E00E94B100DA
S113046089EF90E00197F1F700C000004C2F417034
S113047063E080E00E94B1004C2F427050E055953B
S1130480479564E080E00E94B1004C2F447050E036
S1130490559547955595479565E080E00E94B100D4
S11304A0C8704C2F50E055954795559547955595EF
S11304B0479566E080E00E94B10089EF90E00197E3
S11304C0F1F700C0000040E062E080E00E94B1006B
S11304D089EF90E00197F1F700C00000CF910895F3
S11304E041E061E080E00E94410041E062E080E0A0
S11304F00E94410087E893E10197F1F700C00000F2
S113050041E063E080E00E94410041E064E080E07B
S11305100E94410041E065E080E00E94410041E02A
S113052066E080E00E94410040E061E080E00E94DB
S1130530B10040E062E080E00E94B10082E00E94ED
S1130540CB0188E20E94CB0189EF90E00197F1F79B
S113055000C000008CE00E94CB0186E00E94CB0129
S113056080E80E94CB0181E00E94CB0108950F93A3
S11305701F93CF938C01C0E003C00E942101CF5F81
S1130580F801EC0FF11D80818111F7CFCF911F91FC
S11305900F910895882319F0813041F00895603156
S11305A058F480E8860F0E94CB010895603120F44E
S11305B080EC860F0E94CB01089581E00E94CB015C
S11305C089EF90E00197F1F700C0000008950E94C0
S11305D070020E94DD022FE788E391E02150804001
S11305E09040E1F700C00000C0E0D0E03FC0C6305A
S11305F0D105D4F46C2F80E00E94CA0280E690E01A
S11306000E94B7022FEF89E698E121508040904084
S1130610E1F700C000000E94DD028FE097E201973D
S1130620F1F700C0000021C0C630D105F4F06AE043
S11306306C1B80E00E94CA0280E690E00E94B70230
S11306402FEF89E698E1215080409040E1F700C007
S113065000006C2F80E00E94CA020E94DD028FE03D
S113066097E20197F1F700C000002196CA30D10546
S10D06700CF4BDCFB9CFF894FFCF0E
S109067A48656C6C6F0082
S9030000FC
