S01700004763634170706C69636174696F6E312E737265635B
S11300000C942A000C9434000C9434000C943400A6
S11300100C9434000C9434000C9434000C9434008C
S11300200C9434000C9434000C9434000C9434007C
S11300300C9434000C9434000C9434000C9434006C
S11300400C9434000C9434000C9434000C9434005C
S11300500C94340011241FBECFE5D8E0DEBFCDBF21
S11300600E9444000C9453000C94000010BC87E6DA
S113007089B98AB188618AB980B5866080BD0895DE
S11300805D9BFECF8CB908950E94360081E40E94E6
S113009040002FE38DE093E0215080409040E1F751
S10D00A000C00000F3CFF894FFCF76
S9030000FC
