:100000000C942A000C945F000C943F000C943F0069
:100010000C943F000C943F000C943F000C943F0064
:100020000C943F000C943F000C943F000C943F0054
:100030000C943F000C943F000C943F000C943F0044
:100040000C943F000C943F000C943F000C943F0034
:100050000C943F0011241FBECFE5D8E0DEBFCDBF1A
:1000600010E0A0E6B0E0E4E3F1E002C005900D92FC
:10007000A236B107D9F70E9456000C9498000C9450
:10008000000010BC87E689B98AB188618AB980B559
:10009000866080BD08955D9BFECF8CB9089585B7BD
:1000A000826085BF8BB780648BBF089581B38B7FDF
:1000B00081BB0E9441000E944F007894FFCF1F92A5
:1000C0000F920FB60F9211242F933F934F935F938C
:1000D0006F937F938F939F93AF93BF93EF93FF9310
:1000E000809160008A3719F480E4809360008091E9
:1000F00060008F5F809360000E944B002FED83E9CA
:1001000094E0215080409040E1F700C00000FF9152
:10011000EF91BF91AF919F918F917F916F915F917F
:100120004F913F912F910F900FBE0F901F901895F8
:04013000F894FFCF71
:02013400400089
:00000001FF
