:100000000C942A000C943F000C943F000C943F0089
:100010000C943F000C943F000C943F000C943F0064
:100020000C943F000C943F000C943F000C943F0054
:100030000C943F000C943F000C943F000C943F0044
:100040000C943F000C943F000C943F000C943F0034
:100050000C943F0011241FBECFE5D4E0DEBFCDBF1E
:1000600010E0A0E6B0E0E4EDF6E002C005900D92ED
:10007000A836B107D9F70E944D030C9468030C947D
:1000800000004423D1F58130A1F0813030F082307E
:10009000E1F0833009F067C024C02AB381E090E02A
:1000A00002C0880F991F6A95E2F7809582238ABB68
:1000B000089527B381E090E002C0880F991F6A95E8
:1000C000E2F78095822387BB089524B381E090E016
:1000D00002C0880F991F6A95E2F78095822384BB3E
:1000E000089521B381E090E002C0880F991F6A95BE
:1000F000E2F78095822381BB08954130A1F58130DC
:1001000091F0813028F08230C9F0833061F521C050
:100110002AB381E090E002C0880F991F6A95E2F748
:10012000282B2ABB089527B381E090E002C0880FF6
:10013000991F6A95E2F7282B27BB089524B381E025
:1001400090E002C0880F991F6A95E2F7282B24BB24
:10015000089521B381E090E002C0880F991F6A954D
:10016000E2F7282B21BB08954130B1F5813099F099
:10017000813030F08230D1F0833009F067C021C087
:100180002BB381E090E002C0880F991F6A95E2F7D7
:10019000282B2BBB089528B381E090E002C0880F84
:1001A000991F6A95E2F7282B28BB089525B381E0B3
:1001B00090E002C0880F991F6A95E2F7282B25BBB3
:1001C000089522B381E090E002C0880F991F6A95DC
:1001D000E2F7282B22BB08954423C1F5813099F022
:1001E000813028F08230D9F0833081F524C02BB3E0
:1001F00081E090E002C0880F991F6A95E2F7809530
:1002000082238BBB089528B381E090E002C0880F61
:10021000991F6A95E2F78095822388BB089525B3DC
:1002200081E090E002C0880F991F6A95E2F78095FF
:10023000822385BB089522B381E090E002C0880F3D
:10024000991F6A95E2F78095822382BB0895FA018F
:10025000813049F0813028F0823039F0833051F517
:1002600017C029B303C026B301C023B381E090E0D7
:10027000062E02C0880F991F0A94E2F730E082230D
:10028000932302C0959587956A95E2F78083089538
:1002900020B381E090E0062E02C0880F991F0A94D7
:1002A000E2F730E08223932302C0959587956A9503
:1002B000E2F780830895662389F4813049F0813024
:1002C00028F0823039F08330F9F406C01ABA089564
:1002D00017BA089514BA089511BA08956130A1F4B7
:1002E000813051F0813028F0823049F0833061F460
:1002F00009C08FEF8ABB08958FEF87BB08958FEFFA
:1003000084BB08958FEF81BB0895813049F081301F
:1003100028F0823039F0833041F406C06BBB089579
:1003200068BB089565BB089562BB0895FB018130E9
:1003300049F0813028F0823039F0833051F407C021
:1003400089B303C086B301C083B38083089580B3AB
:1003500080830895DF92EF92FF920F931F93D82E20
:1003600080E061E040E00E94B400EAEFEE2EF12C64
:10037000C7010197F1F780E062E041E00E94B4001C
:10038000C7010197F1F70D2D10E0A80140715070E1
:1003900074E0559547957A95E1F780E063E00E9417
:1003A000B400A8014072507065E0559547956A9574
:1003B000E1F780E064E00E94B400A801407450704E
:1003C00036E0559547953A95E1F780E065E00E9463
:1003D000B4004D2D441F4427441F80E066E00E9476
:1003E000B400C7010197F1F780E062E040E00E94AD
:1003F000B400C7010197F1F780E062E041E00E949C
:10040000B400C7010197F1F781E0D82280E063E0F2
:100410004D2D0E94B400A80142705070559547952B
:1004200080E064E00E94B400A801447050705595CB
:1004300047955595479580E065E00E94B4000870A7
:10044000107083E0159507958A95E1F780E066E0E6
:10045000402F0E94B400C7010197F1F780E062E0ED
:1004600040E00E94B400C7010197F1F71F910F917E
:10047000FF90EF90DF90089581E00E94AA018AEF3B
:1004800090E00197F1F708951F93162F882319F034
:10049000813089F407C0603170F4862F80580E9443
:1004A000AA0107C0603138F4862F80540E94AA0147
:1004B0001F5E109366001F910895DF92EF92FF92E6
:1004C0000F931F93D82E3AEFE32EF12CC70101971B
:1004D000F1F780E062E041E00E94B400C7010197BB
:1004E000F1F70D2D10E0A8014071507024E05595F2
:1004F00047952A95E1F780E063E00E94B400A801E7
:100500004072507095E0559547959A95E1F780E0D7
:1005100064E00E94B400A8014074507086E05595D4
:1005200047958A95E1F780E065E00E94B4004D2D83
:10053000441F4427441F80E066E00E94B40080E02E
:1005400061E041E00E94B400C7010197F1F780E04B
:1005500062E040E00E94B400C7010197F1F780E03B
:1005600062E041E00E94B400C7010197F1F781E029
:10057000D82280E063E04D2D0E94B400A8014270B3
:1005800050705595479580E064E00E94B400A80142
:1005900044705070559547955595479580E065E0B6
:1005A0000E94B40008701070F3E015950795FA9555
:1005B000E1F780E066E0402F0E94B40080E061E057
:1005C00041E00E94B400C7010197F1F780E062E0CA
:1005D00040E00E94B400C7010197F1F71F910F910D
:1005E000FF90EF90DF9008951F93CF93DF93EC017E
:1005F00010E003C00E945D021F5FFE01E10FF11DCC
:1006000080818823B9F7DF91CF911F91089580E011
:1006100061E041E00E94410080E062E041E00E9430
:10062000410088E893E10197F1F780E063E041E061
:100630000E94410080E064E041E00E94410080E0CF
:1006400065E041E00E94410080E066E041E00E94F8
:10065000410080E061E040E00E94B40080E062E0A0
:1006600040E00E94B40082E00E94AA0188E20E9459
:10067000AA018AEF90E00197F1F78CE00E94AA01AD
:1006800086E00E94AA0180E80E94AA0181E00E94FF
:10069000AA010895BE9A6E9A08951F93CF93DF938F
:1006A0000E940703BE9A6E9A80E690E00E94F402D0
:1006B000C8EAD1E6779BFECF1FB181E060E00E94DF
:1006C0004402812F0E945D02CE010197F1F7F2CF23
:0406D000F894FFCFCC
:0806D400536C61766500010022
:00000001FF
