:100000000C942A000C9434000C9434000C943400AA
:100010000C9434000C9434000C9434000C94340090
:100020000C9434000C9434000C9434000C94340080
:100030000C9434000C9434000C9434000C94340070
:100040000C9434000C9434000C9434000C94340060
:100050000C94340011241FBECFE5D8E0DEBFCDBF25
:100060000E94C4020C94E8020C940000411138C0B4
:10007000813091F028F08230D9F0833029F1089551
:100080002AB381E090E002C0880F991F6A95E2F7D9
:10009000809582238ABB089527B381E090E002C057
:1000A000880F991F6A95E2F78095822387BB089590
:1000B00024B381E090E002C0880F991F6A95E2F7AF
:1000C0008095822384BB089521B381E090E002C033
:1000D000880F991F6A95E2F78095822381BB089566
:1000E000413099F5813089F028F08230C9F08330B1
:1000F00011F108952AB381E090E002C0880F991FA2
:100100006A95E2F7822B8ABB089527B381E090E0DD
:1001100002C0880F991F6A95E2F7822B87BB08956A
:1001200024B381E090E002C0880F991F6A95E2F73E
:10013000822B84BB089521B381E090E002C0880F38
:10014000991F6A95E2F7822B81BB08954130A1F592
:10015000813089F028F08230C9F0833011F10895A0
:100160002BB381E090E002C0880F991F6A95E2F7F7
:10017000822B8BBB089528B381E090E002C0880FEA
:10018000991F6A95E2F7822B88BB089525B381E019
:1001900090E002C0880F991F6A95E2F7822B85BB19
:1001A000089522B381E090E002C0880F991F6A95FC
:1001B000E2F7822B82BB0895411137C0813091F064
:1001C00028F08230D9F0833029F108952BB381E0F3
:1001D00090E002C0880F991F6A95E2F7809582230C
:1001E0008BBB089528B381E090E002C0880F991F6F
:1001F0006A95E2F78095822388BB089525B381E054
:1002000090E002C0880F991F6A95E2F780958223DB
:1002100085BB089522B381E090E002C0880F991F4A
:100220006A95E2F78095822382BB0895CF93C82F09
:1002300089EF90E00197F1F700C0000041E062E033
:1002400080E00E94A60089EF90E00197F1F700C0DE
:1002500000004C2F407150E05595479555954795B6
:10026000559547955595479563E080E00E94A60017
:100270004C2F407250E055954795559547955595AB
:100280004795559547955595479564E080E00E94C0
:10029000A6004C2F407450E0042E452F000C441F44
:1002A000550B000C441F551F65E080E00E94A6001E
:1002B0004C2F441F4427441F66E080E00E94A600A4
:1002C00041E061E080E00E94A60089EF90E00197A4
:1002D000F1F700C0000040E062E080E00E94A6006C
:1002E00089EF90E00197F1F700C0000041E062E083
:1002F00080E00E94A60089EF90E00197F1F700C02E
:1003000000004C2F417063E080E00E94A6004C2F5B
:10031000427050E05595479564E080E00E94A60049
:100320004C2F447050E0559547955595479565E09D
:1003300080E00E94A600C8704C2F50E0559547956C
:10034000559547955595479566E080E00E94A60033
:1003500041E061E080E00E94A60089EF90E0019713
:10036000F1F700C0000040E062E080E00E94A600DB
:1003700089EF90E00197F1F700C00000CF91089558
:10038000CF93C82F40E061E080E00E94A60089EF93
:1003900090E00197F1F700C0000041E062E080E0EA
:1003A0000E94A60089EF90E00197F1F700C00000DD
:1003B0004C2F407150E0559547955595479555956B
:1003C00047955595479563E080E00E94A6004C2F25
:1003D000407250E0559547955595479555954795E9
:1003E000559547955595479564E080E00E94A60095
:1003F0004C2F407450E0042E452F000C441F550B29
:10040000000C441F551F65E080E00E94A6004C2FA1
:10041000441F4427441F66E080E00E94A60089EF45
:1004200090E00197F1F700C0000040E062E080E05A
:100430000E94A60089EF90E00197F1F700C000004C
:1004400041E062E080E00E94A60089EF90E0019721
:10045000F1F700C000004C2F417063E080E00E9483
:10046000A6004C2F427050E05595479564E080E01F
:100470000E94A6004C2F447050E055954795559525
:10048000479565E080E00E94A600C8704C2F50E0C0
:1004900055954795559547955595479566E080E064
:1004A0000E94A60089EF90E00197F1F700C00000DC
:1004B00040E062E080E00E94A60089EF90E00197B2
:1004C000F1F700C00000CF91089541E061E080E0C5
:1004D0000E94360041E062E080E00E94360087E83A
:1004E00093E10197F1F700C0000041E063E080E094
:1004F0000E94360041E064E080E00E94360041E066
:1005000065E080E00E94360041E066E080E00E9405
:10051000360040E061E080E00E94A60040E062E03A
:1005200080E00E94A60082E00E94C00188E20E9452
:10053000C00189EF90E00197F1F700C000008CE066
:100540000E94C00186E00E94C00180E80E94C001B4
:1005500081E00E94C001089581E00E94C00189EFFE
:1005600090E00197F1F700C00000089510BC87E605
:1005700089B98AB188618AB980B5866080BD0895DD
:100580005F9BFECF8CB108950E9465020E94AC0271
:1005900083ED90E30197F1F700C000000E94B602DE
:1005A0000E94C002C82F0E94AC0283ED90E3019725
:1005B000F1F700C000008C2F0E9416019FE32DE090
:1005C00083E0915020408040E1F700C00000E8CF78
:0405D000F894FFCFCD
:00000001FF
